:100000000C9475010C949D010C949D010C949D0120
:100010000C949D010C949D010C949D010C949D01E8
:100020000C949D010C949D010C94440E0C94CB0EE9
:100030000C949D010C949D010C949D010C949D01C8
:100040000C949D010C949D010C949D010C949D01B8
:100050000C949D010C949D010C949D010C949E05A3
:100060000C949D010C949D010C949D010C949D0198
:100070000C949D010C949D010C949D010C949D0188
:100080000C94E7090C949D010C949D010C949D0126
:100090000C949D010C949D010C949D010C949D0168
:1000A0000C949D010C949D010C949D010000000096
:1000B000240027002A002D00300000000000250049
:1000C00028002B002E003100000000002300260035
:1000D00029002C002F000404040404030405020278
:1000E00002020403020202020606060606060404D1
:1000F00002020204040802011040804010204080E7
:10010000408008020401804020100201108010206D
:1001100040400000000200080E0000030401000B34
:1001200000000000000000000000000000000000CF
:10013000070605040100080A0B0C0D09080B000254
:10014000020201000904000001020200000524006F
:100150001001052401010104240206052406000102
:100160000705810310004009040100020A00000095
:100170000705020240000007058302400000030457
:100180000309042203410072006400750069006ED7
:10019000006F0020004C0065006F006E006100726F
:1001A0000064006F0018034100720064007500696C
:1001B000006E006F0020004C004C00430012010054
:1001C00002000000404123368000010102000112BC
:1001D00001000202000040412336800001010200BC
:1001E0000100C18081C105010902A1010901A1002D
:1001F00085010509190129031500250195037501DC
:10020000810295017505810305010930093109381D
:100210001581257F750895038106C0C00501090673
:10022000A1018502050719E029E7150025017501DF
:1002300095088102950175088103950675081500DA
:1002400025650507190029658100C0090402000120
:100250000300000009210101000122650007058457
:100260000340000100000000000000002A2B2800CD
:10027000000000000000000000000000000000007E
:10028000000000002C9EB4A0A1A2A434A6A7A5AE95
:10029000362D3738271E1F20212223242526B3334D
:1002A000B62EB7B89F8485868788898A8B8C8D8E79
:1002B0008F909192939495969798999A9B9C9D2F45
:1002C0003130A3AD350405060708090A0B0C0D0EE5
:1002D0000F101112131415161718191A1B1C1DAF25
:1002E000B1B0B500B807800D971011241FBECFEF35
:1002F000DAE0DEBFCDBF11E0A0E0B1E0EEE9F6E26A
:1003000002C005900D92AC35B107D9F712E0ACE50B
:10031000B1E001C01D92A731B107E1F712E0CAEECA
:10032000D2E004C02297FE010E944913C43ED107C7
:10033000C9F70E9483080C944D130C940000FC0133
:10034000208D318D50E0C9018095909586239723AB
:10035000892B09F051E040E08689978928273927C1
:1003600026233723232B09F041E0852F842308958A
:1003700020E0FC01808D918D8095909586239723B8
:10038000892B09F021E0822F0895CF92DF92FF920E
:100390000F931F93CF93DF93EC011D8AFF24C62E8A
:1003A000DD24C7FCD09401E010E055C0960102C0E6
:1003B000359527958A95E2F7C901EE8DFF8D9D8DC4
:1003C00080FF0AC02081A80102C0440F551F9A95E2
:1003D000E2F7242B20830BC02081A80102C0440F28
:1003E000551F9A95E2F7CA01809582238083EB8D91
:1003F000FC8D2081C8010A8C02C0880F991F0A94C5
:10040000E2F780958223808384E090E00E944D068D
:10041000ECA1FDA1808190E00BA002C0959587958D
:100420000A94E2F780FF08C0C8010D8802C0880F57
:10043000991F0A94E2F7F82AEB8DFC8D2081C80100
:100440000A8C02C0880F991F0A94E2F7282B208398
:100450008D898F5F8D8B8D89883008F4A7CFEE8DC5
:10046000FF8D208181E090E00D8C02C0880F991FE4
:100470000A94E2F7282B208383E090E00E944D0647
:100480008F2DDF91CF911F910F91FF90DF90CF9033
:100490000895CF92DF92EF92FF920F931F93CF9325
:1004A000DF938C016B01DC019196ED91FC919297A9
:1004B000208181E090E090960C9002C0880F991FF7
:1004C0000A94E2F7809582238083C0E0D0E0E42E96
:1004D000FF2408C0F601EC0FFD1FC80160810E94D7
:1004E000C5012196CE15DF05ACF3D8019196ED91AB
:1004F000FC919297208181E090E090960C909097EB
:1005000002C0880F991F0A94E2F7282B20839A963D
:100510006C9170E080E090E00E94F405DF91CF9153
:100520001F910F91FF90EF90DF90CF900895CF93A0
:10053000DF93EC0160E071E045E00E944902CE01EA
:1005400065E071E049E00E9449028CA5882331F002
:10055000CE016EE071E045E00E9449028DA588233E
:1005600031F0CE0163E171E049E00E944902CE0121
:100570006CE171E049E00E944902DF91CF9108955A
:100580006F927F928F929F92AF92BF92CF92DF92A3
:10059000EF92FF920F931F93DF93CF93CDB7DEB708
:1005A00065970FB6F894DEBF0FBECDBF4C01662E27
:1005B000742E0E94E605D40196962D913D914D91A1
:1005C0005C919997621B730B840B950B0E943512FB
:1005D0005B016C0120E030E84BEB54E40E94E71231
:1005E00018161CF4C4010E949702F40162A570E081
:1005F000882777FD8095982F0E9437127B018C0108
:10060000C601B501A80197010E940512882354F480
:10061000C801B701A60195010E94A0110E9409120C
:100620000E94F405D40158968D919C915997579644
:100630009C938E935697772029F100D000D0672D98
:1006400070E080E090E02FEF30E040E050E0EDB768
:10065000FEB7218332834383548320E030E040E0BF
:1006600050E0FFEFEF2EF12C012D112DE0E4AE2E26
:10067000B12CC12CD12C0E941410762E0F900F900B
:100680000F900F90D4015E96ED91FC915F974081A1
:1006900081E090E09C015D960C905D9702C0220F76
:1006A000331F0A94E2F7422B40835B96ED91FC9155
:1006B0005C9740819C015A960C905A9702C0220F79
:1006C000331F0A94E2F7422B40839196ED91FC91FF
:1006D0009297208190960C9002C0880F991F0A94DF
:1006E000E2F780958223808383E090E00E944D06AC
:1006F000DE01119689E0FD0111928A95E9F781E00A
:10070000898382E48A836C827D829E01265F3F4FCB
:100710008CE0F90111928A95E9F700E010E07D0183
:10072000F701E00FF11FC40160810E94C501F401CF
:10073000E00FF11F80830F5F1F4F0930110581F714
:10074000D40111968C918937C9F49AE0E92EF12CE5
:10075000EC0EFD1E840186E1C82ED12CCC0EDD1ED0
:10076000C401F70161917F010E94C501D80119966A
:100770008C930F5F1F4FEC14FD0491F7D4019196F9
:10078000ED91FC919297208181E090E090960C9001
:10079000909702C0880F991F0A94E2F7282B2083B4
:1007A00013968D919C91149759969C938E9358977C
:1007B0000E94E605F40166A377A380A791A765963A
:1007C0000FB6F894DEBF0FBECDBFCF91DF911F9162
:1007D0000F91FF90EF90DF90CF90BF90AF909F90E0
:1007E0008F907F906F90089560E040E00E94C0027B
:1007F0000895FF920F931F93CF93DF93EC01F42E94
:10080000122F462F50E0FA01EC50FF4FE49120E008
:1008100030E0F0E0CF01022E02C0959587950A9452
:10082000E2F780FF02C0822F06C02F5F3F4F2830C3
:10083000310581F780E08A8F4A525F4FFA01849137
:10084000E82FF0E0EE0FFF1FE654FF4F85919491E3
:100850009C8F8B8F4F2D50E0FA01EC50FF4FE491AD
:1008600020E030E0F0E0CF01022E02C095958795A0
:100870000A94E2F780FF02C0822F06C02F5F3F4F2D
:100880002830310581F780E08D8F4A525F4FFA01A1
:100890008491E82FF0E0EE0FFF1FE654FF4F8591A3
:1008A00094919F8F8E8F412F50E0FA01EC50FF4FB3
:1008B000E49120E030E0F0E0CF01022E02C09595F7
:1008C00087950A94E2F780FF02C0822F06C02F5F4F
:1008D0003F4F2830310581F780E088A34A525F4FAF
:1008E000FA018491E82FF0E0EE0FFF1FE654FF4F6E
:1008F000859194919AA389A3402F50E0FA01EC507E
:10090000FF4FE49120E030E0F0E0CF01022E02C082
:10091000959587950A94E2F780FF02C0822F06C062
:100920002F5F3F4F2830310581F780E08BA34A527B
:100930005F4FFA018491E82FF0E0EE0FFF1FE853BC
:10094000FF4F859194919DA38CA3862F61E00E9417
:10095000AD06812F61E00E94AD068F2D61E00E94FF
:10096000AD06802F60E00E94AD06802F61E00E94FE
:100970003A07EE8DFF8D408121E030E0C9010D8CFA
:1009800002C0880F991F0A94E2F7482B4083EB8D31
:10099000FC8D80810A8C02C0220F331F0A94E2F77B
:1009A000822B8083CE010E94F403CE010E94F403C7
:1009B0008981813431F0833721F0893711F081E06A
:1009C0002AC081E08AA700E010E0CE0160E071E07B
:1009D00045E00E944902CE0165E071E049E00E94D5
:1009E0004902CE016CE171E049E00E944902CE016A
:1009F0000E94F4038981833769F00A30110511F4EC
:100A000082E009C08AA58F5F8AA70F5F1F4F0B3056
:100A10001105D9F680E0DF91CF911F910F91FF90E2
:100A20000895CF93DF938CE591E00E94F4038CE569
:100A300091E060E170E00E949F01882359F48CE509
:100A400091E060E470E00E949F01882319F4CFEFE9
:100A5000DFEF40C08CE591E060E072E00E94B801F9
:100A6000882319F0C1E0D0E02EC08CE591E060E071
:100A700070E20E94B801882371F08CE591E060E09B
:100A800070E10E94B801882319F4C2E0D0E01BC0D5
:100A9000C3E0D0E018C08CE591E060E070E40E9413
:100AA000B801882319F0C4E0D0E00DC08CE591E0D6
:100AB00060E070E80E94B801882319F0C5E0D0E03A
:100AC00002C0C0E0D0E087ED91E0BE014AE050E016
:100AD0000E94A009CE01DF91CF9108950E941105D7
:100AE000FC018FEFEF3FF80799F0309721F483E096
:100AF0000E944C0A0895EE0FFF1FEB5DFE4F6081D0
:100B0000718183E024EF31E040E050E00E94630A0D
:100B100008950F9387ED91E060E875E20E946D07FC
:100B200083E061E00E94AD068CE591E067E046E07D
:100B300025E004E00E94F9030F9108951F920F929F
:100B40000FB60F9211242F933F938F939F93AF93E0
:100B5000BF9380918E0190918F01A0919001B091EF
:100B60009101309192010196A11DB11D232F2D5F9E
:100B70002D3720F02D570196A11DB11D2093920114
:100B800080938E0190938F01A0939001B093910177
:100B900080918A0190918B01A0918C01B0918D017F
:100BA0000196A11DB11D80938A0190938B01A093A2
:100BB0008C01B0938D01BF91AF919F918F913F9127
:100BC0002F910F900FBE0F901F9018958FB7F8942C
:100BD00020918E0130918F014091900150919101AF
:100BE0008FBFB901CA0108959B01AC017FB7F8948A
:100BF00080918A0190918B01A0918C01B0918D011F
:100C000066B5A89B05C06F3F19F00196A11DB11DE7
:100C10007FBFBA2FA92F982F8827860F911DA11D5E
:100C2000B11D62E0880F991FAA1FBB1F6A95D1F7FB
:100C3000BC012DC0FFB7F89480918A0190918B017F
:100C4000A0918C01B0918D01E6B5A89B05C0EF3F46
:100C500019F00196A11DB11DFFBFBA2FA92F982F22
:100C600088278E0F911DA11DB11DE2E0880F991FED
:100C7000AA1FBB1FEA95D1F7861B970B885E93408E
:100C8000C8F2215030404040504068517C4F2115FF
:100C900031054105510571F60895019739F0880F26
:100CA000991F880F991F02970197F1F7089578947B
:100CB00084B5826084BD84B5816084BD85B5826061
:100CC00085BD85B5816085BDEEE6F0E080818160FF
:100CD0008083E1E8F0E010828081826080838081FF
:100CE00081608083E0E8F0E0808181608083E1E9D9
:100CF000F0E0808182608083808181608083E0E990
:100D0000F0E0808181608083E1ECF0E080818460AC
:100D10008083808182608083808181608083E3EC36
:100D2000F0E0808181608083E0ECF0E0808182608F
:100D30008083E2ECF0E0808181608083EAE7F0E08C
:100D400080818460808380818260808380818160F3
:100D500080838081806880830895CF93DF93482FBC
:100D600050E0CA018C509F4FFC0134914A525F4FB2
:100D7000FA018491882369F190E0880F991FFC01A2
:100D8000E455FF4FA591B491FC01E654FF4FC59186
:100D9000D491662351F42FB7F8948C91932F9095AA
:100DA00089238C93888189230BC0623061F42FB72B
:100DB000F8948C91932F909589238C938881832B21
:100DC00088832FBF06C09FB7F8948C91832B8C9398
:100DD0009FBFDF91CF910895883071F1893068F419
:100DE000823031F1833020F4813009F042C01DC0DF
:100DF000833089F08430E9F512C08B3059F18C30A2
:100E000028F48930E9F08A30A1F51EC08C3031F128
:100E10008E3079F529C0809180008F7703C0809152
:100E200080008F7D80938000089584B58F7702C005
:100E300084B58F7D84BD0895809190008F7707C021
:100E4000809190008F7D03C080919000877F809378
:100E5000900008958091C0008F7703C08091C000FA
:100E60008F7D8093C00008958091C200877F80931A
:100E7000C2000895FF920F931F93F62E482F50E063
:100E8000CA018E5E9E4FFC012491CA018C509F4F77
:100E9000FC0114914A525F4FFA0104910023C9F0FA
:100EA000222319F0822F0E94EC06E02FF0E0EE0FD3
:100EB000FF1FE654FF4FA591B4919FB7F894FF2010
:100EC00021F48C911095812302C08C91812B8C93FD
:100ED0009FBF1F910F91FF90089508952091D30116
:100EE0003091D4018091D5019091D601281B390B06
:100EF0002F733070C90108952091D3013091D4012E
:100F00008091D5019091D6012817390719F42FEF58
:100F10003FEF09C0E091D501F091D601ED56FE4FAB
:100F20008081282F30E0C90108952091D3013091AC
:100F3000D4018091D5019091D6012817390719F471
:100F40002FEF3FEF13C0E091D501F091D601ED56A0
:100F5000FE4F20818091D5019091D60101968F732B
:100F600090709093D6018093D50130E0C901089527
:100F70001092DA011092D90188EE93E0A0E0B0E07F
:100F80008093DB019093DC01A093DD01B093DE013F
:100F900080E491E09093D8018093D70108950F9356
:100FA0001F93DF93CF930F92CDB7DEB78C01698388
:100FB00080913801882369F083E0BE016F5F7F4F25
:100FC00041E050E00E949F0D1816190614F49C0190
:100FD00007C081E090E0F8019383828320E030E055
:100FE000C9010F90CF91DF911F910F91089583E078
:100FF0000E94760D0895CF93DF9312C082E00E9485
:10100000010D2FEF8F3F9207C9F0E091D301F091CE
:10101000D401ED56FE4F8083D093D401C093D30109
:10102000C091D301D091D4012196CF73D07080911B
:10103000D5019091D601C817D90701F7DF91CF915B
:101040000895FC0180818E5F808380E86CE371E00D
:1010500042E450E00E941A0D0895FC0181819081C4
:10106000913A59F4813209F04CC080E061E371E0BB
:1010700047E050E00E941A0D42C0913209F041C091
:10108000803239F481E391E067E070E00E945E0D08
:1010900036C0823209F035C0828180933801809158
:1010A000310190913201A0913301B0913401805B04
:1010B0009440A040B04019F58091380180FD12C0E5
:1010C00087E797E790930108809300082BE088E179
:1010D00090E00FB6F894A895809360000FBE20931F
:1010E00060000DC088E10FB6F89480936000109204
:1010F00060000FBEA895109201081092000881E0D0
:10110000089580E00895CF93DF930E94570689E009
:1011100092E00E94810D0E948905C0E0D0E00E940B
:101120006E052097E1F30E940000F9CFCF92DF9285
:10113000EF92FF920F931F93CF93DF937C016B018C
:101140008A01C0E0D0E00FC0D6016D916D01D701DA
:10115000ED91FC910190F081E02DC7010995C80F38
:10116000D91F015010400115110571F7CE01DF9113
:10117000CF911F910F91FF90EF90DF90CF90089546
:10118000EF92FF920F931F938C01DC01ED91FC9184
:101190000190F081E02D6DE009957C01D801ED9181
:1011A000FC910190F081E02DC8016AE009959C0155
:1011B0002E0D3F1DC9011F910F91FF90EF900895D3
:1011C000CF93DF93EC016115710519F420E030E055
:1011D0000FC0DB010D900020E9F71197A61BB70B9C
:1011E000E881F9810280F381E02DAD0109959C0130
:1011F000C901DF91CF9108954F925F927F928F92B4
:101200009F92AF92BF92CF92DF92EF92FF920F9395
:101210001F93DF93CF93CDB7DEB7A1970FB6F894A6
:10122000DEBF0FBECDBF2C01742ECB01223008F4DF
:101230002AE019A231E2C32ED12CCC0EDD1E822E63
:101240009924AA24BB24672D752FA50194010E941F
:101250000A1379018A01C801B701A50194010E940E
:10126000EB12472D461B0894C108D1084A3014F4EC
:10127000405D01C0495CF6014083E114F1040105C1
:10128000110521F07E2C5F2DC801DDCFC201B60112
:101290000E94E008A1960FB6F894DEBF0FBECDBF46
:1012A000CF91DF911F910F91FF90EF90DF90CF9042
:1012B000BF90AF909F908F907F905F904F900895D8
:1012C000CF92DF92EF92FF920F931F93CF93DF9312
:1012D000EC016A017B012115310541F4E881F981B6
:1012E0000190F081E02D642F09951FC02A3031054F
:1012F000D1F477FF17C0E881F9810190F081E02DEA
:101300006DE209958C0144275527BA014C195D09F6
:101310006E097F09CE012AE00E94FC089801280F7F
:10132000391F04C02AE00E94FC089C01C901DF911A
:10133000CF911F910F91FF90EF90DF90CF90089584
:10134000CF92DF92EF92FF920F931F936C017B017C
:101350009A010027F7FC0095102FB801A7010E9401
:1013600060098C01C6010E94C008080F191FC8013E
:101370001F910F91FF90EF90DF90CF9008958230F2
:10138000B9F0833028F4882351F08130F9F40AC091
:101390008430B9F0843090F08530C1F415C01092DB
:1013A0006E00089580916F008D7F80936F00089587
:1013B000809170008D7F809370000895109271006D
:1013C00008951092720008951092730008951F926C
:1013D0000F920FB60F9211242F933F934F935F9369
:1013E0006F937F938F939F93AF93BF93EF93FF93ED
:1013F0008091F3019091F401A091F501B091F60173
:101400000097A105B10551F1E091F701F091F801C4
:1014100080819091F901892780838091F3019091D7
:10142000F401A091F501B091F601181619061A06FB
:101430001B060CF58091F3019091F401A091F50148
:10144000B091F6010197A109B1098093F30190933E
:10145000F401A093F501B093F6010DC083E00E9462
:10146000BF09E091F701F091F80190818091F901B5
:10147000809589238083FF91EF91BF91AF919F91D8
:101480008F917F916F915F914F913F912F910F902D
:101490000FBE0F901F9018951F93182F8091390140
:1014A000811711F09FEF06C0EEE7F1E094918FEF06
:1014B00080933901892F0E94BF09812F60E00E942B
:1014C0003A071F9108952F923F925F926F927F92F9
:1014D0008F929F92AF92BF92CF92DF92EF92FF9244
:1014E0000F931F93DF93CF9300D000D0CDB7DEB71B
:1014F000A82F1B0129833A834B835C838091390198
:101500008A1721F4EEE7F1E05490AFC08F3F09F065
:101510002EC2A0933901EEE7F1E054902FEF52165E
:1015200009F425C281E0581671F185151CF055208B
:1015300051F09BC093E0591609F44BC0B4E05B1620
:1015400009F093C06CC014BC15BC84B5826084BD26
:1015500085B5816085BD2A2F30E0F901EA52FF4F41
:10156000E491F0E0EE0FFF1FE654FF4F8591949158
:101570009093EA018093E9012C503F4FF901849147
:101580008093EB0174C010928000109281008091D2
:1015900081008860809381008091810081608093C8
:1015A00081002A2F30E0F901EA52FF4FE491F0E088
:1015B000EE0FFF1FE654FF4F859194919093F10138
:1015C0008093F0012C503F4FF90184918093F201F8
:1015D0004EC010929000109291008091910088600E
:1015E00080939100809191008160809391002A2FD7
:1015F00030E0F901EA52FF4FE491F0E0EE0FFF1FF7
:10160000E654FF4F859194919093F8018093F701F0
:101610002C503F4FF90184918093F90128C010921A
:10162000C0001092C1008091C10088608093C10009
:101630008091C10081608093C1002A2F30E0F901C0
:10164000EA52FF4FE491F0E0EE0FFF1FE654FF4F28
:10165000859194919093FF018093FE012C503F4F10
:10166000F90184918093000202C057FC80C18A2F47
:1016700061E00E94AD06552021F0F2E05F1609F00E
:10168000BAC031018824992460E072E18AE790E0D1
:10169000A40193010E942C1359016A01860175016E
:1016A0000894E108F108010911092FEFE216F1048D
:1016B0000105110509F008F498C060E472E48FE0B8
:1016C00090E0A40193010E942C1379018A010894EF
:1016D000E108F1080109110982E05816C1F49FEFF1
:1016E000E916F1040105110509F008F4CEC060E91E
:1016F00070ED83E090E0A40193010E942C13790126
:101700008A010894E108F1080109110983E0AFEFAB
:10171000EA16F1040105110509F008F467C068E450
:1017200078EE81E090E0A40193010E942C137901EE
:101730008A010894E108F10801091109552011F402
:1017400083E01DC0B2E05B1611F084E018C0EFEF3B
:10175000EE16F1040105110509F008F496C064E2E3
:1017600074EF80E090E0A40193010E942C137901B2
:101770008A010894E108F1080109110985E0FFEFE9
:10178000EF16F1040105110589F180F162E17AE7B4
:1017900080E090E0A40193010E942C1379018A015A
:1017A0000894E108F10801091109552011F086E0BB
:1017B00001C084E02FEFE216F10401051105B1F03C
:1017C000A8F0C601B50120E034E040E050E00E94FE
:1017D0002C1379018A010894E108F1080109110923
:1017E000552009F052C085E004C081E0552009F081
:1017F0004CC085BD4AC05101CC24DD2460E072E1BB
:101800008AE790E0A60195010E942C1379018A01D4
:101810000894E108F1080109110980E0E81680E068
:10182000F80681E0080780E0180710F491E010C086
:1018300068E478EE81E090E0A60195010E942C1307
:1018400079018A010894E108F1080109110993E07E
:10185000A1E05A1639F480918100887F982B9093EB
:10186000810013C0B3E05B1639F480919100887F4A
:10187000982B9093910009C0E4E05E1631F48091BA
:10188000C100887F982B9093C10089819A81AB8198
:10189000BC810097A105B10529F48FEF9FEFAFEF51
:1018A000BFEF13C0220C331CB10180E090E029810E
:1018B0003A814B815C810E94EB1228EE33E040E0DC
:1018C00050E00E940A13C901DA01E1E05E16E1F07E
:1018D000E5151CF0552049F04AC0F3E05F1631F1E0
:1018E00024E0521609F043C033C0E7BC8093E50101
:1018F0009093E601A093E701B093E80180916E0018
:10190000826080936E0033C0F0928900E09288007C
:101910008093EC019093ED01A093EE01B093EF0161
:1019200080916F00826080936F0021C0F0929900D7
:10193000E09298008093F3019093F401A093F50155
:10194000B093F601809171008260809371000FC0A6
:10195000E092CF008093FA019093FB01A093FC01E9
:10196000B093FD01809172008064809372000F90AB
:101970000F900F900F90CF91DF911F910F91FF90DB
:10198000EF90DF90CF90BF90AF909F908F907F901F
:101990006F905F903F902F900895282F80910302C1
:1019A0008823C1F057FF1AC015C0289890930202EF
:1019B0008091F1008193E217F307B9F741155105C2
:1019C00039F08091F200882319F48BE68093E800C7
:1019D000AFBF02C04FEF5FEFCA010895AFB7F894F1
:1019E00027702093E9008091F200282F30E024171F
:1019F00035070CF4A901FB019B01240F311D94E66E
:101A0000DACFDF93CF930F92CDB7DEB7BE016F5F12
:101A10007F4F41E050E00E94CD0C019719F02FEF6D
:101A20003FEF03C08981282F30E0C9010F90CF918B
:101A3000DF910895FF920F931F93F82E142F052F17
:101A40004091060250910702212F302FC901DC017D
:101A5000FB016EEF29C0F7FE02C0949101C0908196
:101A6000209104023091050224173507ACF48091CF
:101A7000E8008570E1F38091E80082FF03C02FEF5A
:101A80003FEF17C09093F100C90101968F739070DA
:101A9000892B11F46093E8002F5F3F4F30930502CC
:101AA00020930402119731961097A9F6812F902F59
:101AB0009C01C9011F910F91FF9008959C01809195
:101AC000E80082FFFCCFF901260F311D03C0809191
:101AD000F1008193E217F307D1F7289884E6809309
:101AE00002028BEF8093E800CB0108958093E90018
:101AF0008091F200882319F08AE38093E80008952A
:101B000008951092030281E08093D70080EA8093C9
:101B1000D80082E189BD09B400FEFDCF61E070E02C
:101B200080E090E00E94F40580E98093D8008CE08A
:101B30008093E2001092E000559A209A08955F92F7
:101B40006F927F928F929F92AF92BF92CF92DF92CD
:101B5000EF92FF920F931F93CF93DF93E82E842E83
:101B6000752E80910302882371F18B01242F352F6C
:101B7000C901EC017AEFF72E67E0962E9E2050E423
:101B8000552E8E2D90E040E2A42EB12CA822B92231
:101B90003AE3632E20E4C22ED12CC822D92258C0A9
:101BA0009FB7F8949092E9008091E80085FD02C00B
:101BB00020E004C08091F200252D281B9FBF222326
:101BC00061F4FA9419F42FEF3FEF4DC061E070E03B
:101BD00080E090E00E94F4053BC0822F90E0C8179F
:101BE000D9070CF42C2FC21BD1094FB7F89490924F
:101BF000E900A114B10421F406C01092F1002150B3
:101C00002223D9F719C0E7FC03C0F801922F10C0B6
:101C1000C801322F06C0FC010196E491E093F10067
:101C200031503323C1F706C081918093F100915068
:101C30009923D1F7020F111D8091E80085FF05C09F
:101C4000209729F4C114D10411F06092E8004FBF2D
:101C5000209709F0A5CF5D9884E680930102282D96
:101C6000372DC9019C01C901DF91CF911F910F91BF
:101C7000FF90EF90DF90CF90BF90AF909F908F90AC
:101C80007F906F905F9008951F920F920FB60F9202
:101C900011242F933F934F935F936F937F938F9371
:101CA0009F93AF93BF93EF93FF938091E1001092C6
:101CB000E100982F83FF0FC01092E90081E080932C
:101CC000EB001092EC0082E38093ED00109203028F
:101CD00088E08093F00092FF34C083E08093E900B5
:101CE0008091F200882319F08AE38093E8008FB78F
:101CF000F89492E09093E9009091F2008FBF9923BD
:101D000021F087ED91E00E94FB078091010288237A
:101D100051F0809101028150809301028091010273
:101D2000882309F45D9A80910202882351F0809102
:101D3000020281508093020280910202882309F4FA
:101D4000289AFF91EF91BF91AF919F918F917F91D1
:101D50006F915F914F913F912F910F900FBE0F9018
:101D60001F9018950F931F93DF93CF930F92CDB7CA
:101D7000DEB719828E010F5F1F4FC8010E94210834
:101D8000C8010E949411898190E00F90CF91DF915A
:101D90001F910F9108951F920F920FB60F92112469
:101DA000EF92FF921F932F933F934F935F936F9305
:101DB0007F938F939F93AF93BF93EF93FF93DF93A3
:101DC000CF93CDB7DEB76197DEBFCDBF1092E900EC
:101DD0008091E80083FF0FC1FE0131969E01275FCD
:101DE0003F4F03C08091F1008193E217F307D1F7D1
:101DF000289884E68093020282EF8093E80099811C
:101E000097FF05C08091E80080FFFCCF03C08EEFF4
:101E10008093E800292F30E0C90180769070892BEB
:101E200009F0C2C08A81882329F41092F10010922F
:101E3000F100D6C0813009F4D3C0833009F4D0C09A
:101E4000853049F48091E80080FFFCCF8B81806869
:101E50008093E300C5C0863009F07CC01C81EF8010
:101E6000F8841230C1F51092E90010920502109228
:101E7000040210920702109206020E94B20E99E02C
:101E8000FE013996DF01292F1D922A95E9F79987DE
:101E90001A8791E09E8790E8988B9AEF998B209112
:101EA000040230910502275F3F4F3C872B878D87C7
:101EB0001092E9001092050210920402F0920702BB
:101EC000E092060280E0BF0149E050E00E941A0D56
:101ED0000E94B20E85C01092E90010920502109285
:101EE0000402F0920702E0920602123241F482E20A
:101EF00090E00E948C11892B09F476C071C01130DA
:101F000079F488E0E816F10419F481E0809308027E
:101F100080910802882309F06BC0EDEBF1E013C05B
:101F2000133009F061C08B81882319F4EFE7F1E0E9
:101F30000AC0823019F4E3E8F1E005C0813009F00D
:101F400053C0E5EAF1E0449180E8BF0150E00E940F
:101F50001A0D46C0873009F447C0883021F481E06B
:101F60008093F1003DC08930D9F523703070232B68
:101F7000D9F5E2EEF1E091E031E026E39093E9005B
:101F80003093EB0084918093EC002093ED009F5FF1
:101F90003196953099F78EE78093EA001092EA0027
:101FA0008B81809303021CC08F8198851092E90079
:101FB0001092050210920402909307028093060289
:101FC0008D81882329F4CE0101960E942D0806C038
:101FD000823051F4CE0101960E945D10882321F0D9
:101FE0008EEF8093E80007C081E28093EB0003C08E
:101FF000EFECF1E0A8CF6196DEBFCDBFCF91DF91CE
:10200000FF91EF91BF91AF919F918F917F916F91D0
:102010005F914F913F912F911F91FF90EF900F9003
:102020000FBE0F901F9018952F923F924F925F9284
:102030006F927F928F929F92AF92BF92CF92DF92D8
:10204000EF92FF920F931F93DF93CF93CDB7DEB73D
:102050003B014C0119012A016D897E898F89988D78
:102060006A197B098C099D09621A730A840A950A08
:10207000A40193010E94EB12E218F3080409150968
:10208000A80197010E942C132A0D3B1D4C1D5D1DBC
:10209000B901CA01CF91DF911F910F91FF90EF908D
:1020A000DF90CF90BF90AF909F908F907F906F9078
:1020B0005F904F903F902F900895FC019181808117
:1020C000813A31F4913089F080E0933089F40DC089
:1020D000813269F49B3021F4828180933A0105C0FA
:1020E0009A3029F4828180933B0181E0089580E059
:1020F0000895EF92FF920F931F938C01E62EDC015F
:10210000ED91FC910480F581E02D0995F82ED80120
:10211000ED91FC910680F781E02DC8016E2D0995A7
:102120008F2D90E01F910F91FF90EF9008951092E6
:102130000A0210920E0210920D0282E591E0909335
:102140000C0280930B020895EF92FF920F931F935E
:10215000DF93CF930F92CDB7DEB789838B017A01DE
:1021600084E0BE016F5F7F4F41E050E00E949F0D11
:1021700084E4B801A7010E949F0D0F90CF91DF91D9
:102180001F910F91FF90EF90089582E048E050E09A
:102190000E94A4100895FC011682178210861186F1
:1021A0001286138614823496BF010E94C5100895CA
:1021B000DC01683810F0685829C0E62FF0E067FFAE
:1021C00013C0E058F04081E090E002C0880F991FF2
:1021D000EA95E2F7809514962C911497282314968B
:1021E0002C93149760E012C0EC59FD4F6491662364
:1021F00019F420E030E01DC067FF08C014968C91F0
:1022000014978D7F14968C9314976F77FD0190E04F
:10221000662321F08681861709F416829F5F319626
:102220009630B1F7CD011496BD010E94C51021E092
:1022300030E0C9010895CF93DF93DC01683810F0D6
:10224000685825C0E62FF0E067FF12C0E058F04064
:1022500081E090E002C0880F991FEA95E2F714969A
:102260002C911497282B14962C93149760E00FC090
:10227000EC59FD4F64916623D9F167FF08C01496AD
:102280008C911497826014968C9314976F7716969E
:102290008C9116978617A9F117968C911797861728
:1022A00081F118968C911897861759F119968C918F
:1022B0001997861731F11A968C911A97861709F19A
:1022C0001B968C911B978617E1F0ED01E0E0F0E0A2
:1022D0009E2F8E81882321F4EA0FFB1F668306C0A0
:1022E0009F5F31962196E630F10591F7963049F4DB
:1022F00081E090E013969C938E93129720E030E05B
:1023000007C0CD011496BD010E94C51021E030E048
:10231000C901DF91CF91089580E866EE71E045E64E
:1023200050E00E941A0D0895FC0180818F5F808328
:1023300080E86BE472E049E150E00E941A0D0895D4
:102340005058BB27AA270ED008C1F9D030F0FED0D4
:1023500020F031F49F3F11F41EF4EEC00EF4E0952E
:10236000E7FBE4C0E92F0AD180F3BA1762077307CD
:102370008407950718F071F49EF522C10EF4E095DC
:102380000B2EBA2FA02D0B01B90190010C01CA012F
:10239000A0011124FF27591B99F0593F50F4503EDA
:1023A00068F11A16F040A22F232F342F4427585FCC
:1023B000F3CF469537952795A795F0405395C9F7E4
:1023C0007EF41F16BA0B620B730B840BBAF091509C
:1023D000A1F0FF0FBB1F661F771F881FC2F70EC03B
:1023E000BA0F621F731F841F48F48795779567950E
:1023F000B795F7959E3F08F0B3CF9395880F08F0F7
:102400009927EE0F9795879508956CD008F481E091
:102410000895BCD088F09F5790F0B92F9927B751F5
:10242000A0F0D1F0660F771F881F991F1AF0BA9598
:10243000C9F712C0B13081F0C3D0B1E00895C0C077
:10244000672F782F8827B85F39F0B93FCCF386958E
:1024500077956795B395D9F73EF4909580957095EB
:1024600061957F4F8F4F9F4F0895E89409C097FB68
:102470003EF490958095709561957F4F8F4F9F4F5B
:102480009923A9F0F92F96E9BB279395F69587959F
:1024900077956795B795F111F8CFFAF4BB0F11F462
:1024A00060FF1BC06F5F7F4F8F4F9F4F16C0882309
:1024B00011F096E911C0772321F09EE8872F762F3F
:1024C00005C0662371F096E8862F70E060E02AF080
:1024D0009A95660F771F881FDAF7880F969587956C
:1024E00097F90895990F0008550FAA0BE0E8FEEF41
:1024F00016161706E807F907C0F012161306E407C8
:10250000F50798F0621B730B840B950B39F40A26C0
:1025100061F0232B242B252B21F408950A2609F49E
:10252000A140A6958FEF811D811D089597F99F67A2
:1025300080E870E060E008959FEF80EC089500244B
:102540000A941616170618060906089500240A9418
:1025500012161306140605060895092E0394000C9E
:1025600011F4882352F0BB0F40F4BF2B11F460FF2D
:1025700004C06F5F7F4F8F4F9F4F089557FD905856
:10258000440F551F59F05F3F71F04795880F97FB37
:10259000991F61F09F3F79F08795089512161306F1
:1025A0001406551FF2CF4695F1DF08C01616170620
:1025B0001806991FF1CF8695710561050894089555
:1025C000E894BB2766277727CB0197F908958ADF20
:1025D00008F48FEF0895629FD001739FF001829FEE
:1025E000E00DF11D649FE00DF11D929FF00D839FA2
:1025F000F00D749FF00D659FF00D9927729FB00D3F
:10260000E11DF91F639FB00DE11DF91FBD01CF0151
:1026100011240895A1E21A2EAA1BBB1BFD010DC0B7
:10262000AA1FBB1FEE1FFF1FA217B307E407F50782
:1026300020F0A21BB30BE40BF50B661F771F881F5E
:10264000991F1A9469F760957095809590959B01F4
:10265000AC01BD01CF01089597FB092E05260ED0D0
:1026600057FD04D0D7DF0AD0001C38F450954095B0
:10267000309521953F4F4F4F5F4F0895F6F7909556
:102680008095709561957F4F8F4F9F4F0895EE0F06
:0E269000FF1F0590F491E02D0994F894FFCF00
:10269E000143000100014400010300000000014D50
:1026AE00000001014F00FFFF030000000143000086
:1026BE005A5A5A5A5A000088015D014A01260106EB
:1026CE000100E1000000000000FF01010000000019
:1026DE00CF0796086E0795077C07F707FB070000E4
:0C26EE000000791096081B11D810CB10CA
:00000001FF
