:100000000C9462000C948A000C948A000C948A0070
:100010000C948A000C948A000C948A000C948A0038
:100020000C948A000C948A000C948A000C948A0028
:100030000C948A000C948A000C948A000C948A0018
:100040000C94DB020C948A000C948A000C948A00B5
:100050000C948A000C948A000C948A000C948A00F8
:100060000C948A000C948A000000000024002700F1
:100070002A0000000000250028002B0000000000DE
:1000800023002600290004040404040404040202DA
:100090000202020203030303030301020408102007
:1000A0004080010204081020010204081020000012
:1000B0000007000201000003040600000000000029
:1000C00000008D0011241FBECFEFD8E0DEBFCDBFF2
:1000D00011E0A0E0B1E0EEEDFAE002C005900D9273
:1000E000A030B107D9F711E0A0E0B1E001C01D9246
:1000F000A332B107E1F710E0C4ECD0E004C02297CE
:10010000FE010E946905C23CD107C9F70E944A045A
:100110000C946D050C94000008958F929F92AF92FD
:10012000BF92CF92DF92EF92FF920F931F9300D076
:1001300000D083E090E0EDB7FEB79283818382E048
:1001400090E09483838380E091E06BE070E04AE08C
:1001500050E029E030E008E010E0B7E0EB2EF12CB1
:10016000A6E0CA2ED12CF5E0AF2EB12CE4E08E2E05
:10017000912C0E946F020F900F900F900F901F9183
:100180000F91FF90EF90DF90CF90BF90AF909F9036
:100190008F90089560911601709117018091180158
:1001A000909119012DEC3CEC4CEC5DE30E945A045B
:1001B00060931601709317018093180190931901B1
:1001C0000E94BE049B01AC0180E091E0B9010E9455
:1001D00064020895CF93DF93EC016430710509F454
:1001E00071C0653071058CF461307105F1F16230D8
:1001F00071051CF4672B11F1BBC062307105C1F1B0
:100200006330710509F0B4C046C06730710509F468
:1002100076C0683071054CF46530710509F461C031
:100220006630710509F0A4C063C06830710509F437
:1002300071C06930710509F09BC07FC0888160E0A2
:100240000E94F6038A8160E00E94F6038C8160E0E0
:100250000E94F6038E8160E00E94F603888560E0CC
:100260000E94F6038A8560E099C0888161E049C0F8
:10027000888160E00E94F6038A8160E00E94F603B4
:100280008C8161E00E94F6038E8160E00E94F6039B
:10029000888560E012C0888160E00E94F6038A8150
:1002A00060E00E94F6038C8160E00E94F6038E817C
:1002B00060E00E94F603888561E00E94F6038A856B
:1002C00061E051C0888161E00E94F6038A8160E0AC
:1002D0000E94F6038C8160E00E94F6038E8161E04B
:1002E0003AC0888160E00E94F6038A8161E02BC0F9
:1002F000888160E00E94F6038A8161E011C08881F4
:1003000060E00E94F6038A8160E00E94F6038C811F
:1003100060E038C0888160E00E94F6038A8160E076
:100320000E94F6038C8160E00E94F6038E8160E0FB
:100330000E94F603888560E012C0888160E00E9418
:10034000F6038A8160E00E94F6038C8160E00E94DF
:10035000F6038E8160E00E94F603888561E00E94CA
:10036000F6038A8560E00E94F6038C8560E01AC07F
:10037000888161E00E94F6038A8161E00E94F603B1
:100380008C8161E00E94F6038E8161E00E94F60399
:10039000888561E00E94F6038A8561E00E94F60389
:1003A0008C8561E00E94F603DF91CF910895CF9292
:1003B000DF92EF92FF920F931F93DF93CF9300D0C2
:1003C00000D000D0CDB7DEB77C01FC0104891589CF
:1003D000C80164E670E00E9440057A8369832CE9D5
:1003E0003FEF629FF001639FF00D729FF00D1124AB
:1003F000E00FF11FCF016AE070E00E9440057C83AE
:100400006B8326EF3FEF629FC001639F900D729F49
:10041000900D1124E80FF91FFE83ED836E010894FF
:10042000C11CD11C00E010E060E00115110509F4C9
:1004300061E0F70186850E94F60360E00130110556
:1004400009F461E0F70180890E94F60360E0023060
:10045000110509F461E0F70182890E94F603F601B3
:10046000619171916F01C7010E94EA006AE070E03A
:1004700080E090E00E9423030F5F1F4F03301105BF
:1004800099F626960FB6F894DEBF0FBECDBFCF917A
:10049000DF911F910F91FF90EF90DF90CF90089523
:1004A000FC01758B648B77FF02C0158A148A8489DE
:1004B0009589885E934024F087EE93E0958B848B3A
:1004C000CF010E94D70108950F931F938C010E94C2
:1004D0005002C8010E94D7011F910F9108956F9299
:1004E0007F928F929F92AF92BF92CF92DF92EF92C4
:1004F000FF920F931F93DF93CF93CDB7DEB73C01ED
:100500008A2DF301A082B182D382C28235832483F3
:100510005783468371876087F386E2861587048751
:100520009786868629893A89318B208B2B893C894D
:10053000338B228B158A148A61E00E94B703F30182
:10054000828161E00E94B703F301848161E00E942F
:10055000B703F301868161E00E94B703F301808550
:1005600061E00E94B703F301828561E00E94B70356
:10057000F301848561E00E94B703F301868561E0A1
:100580000E94B703F301808961E00E94B703F30181
:10059000828961E00E94B703CF91DF911F910F9193
:1005A000FF90EF90DF90CF90BF90AF909F908F9093
:1005B0007F906F9008951F920F920FB60F921124A3
:1005C0002F933F938F939F93AF93BF9380911E017F
:1005D00090911F01A0912001B09121013091220141
:1005E0000196A11DB11D232F2D5F2D3720F02D5712
:1005F0000196A11DB11D2093220180931E019093AD
:100600001F01A0932001B093210180911A019091C4
:100610001B01A0911C01B0911D010196A11DB11DEE
:1006200080931A0190931B01A0931C01B0931D01AC
:10063000BF91AF919F918F913F912F910F900FBEDE
:100640000F901F9018959B01AC017FB7F894809193
:100650001A0190911B01A0911C01B0911D0166B57A
:10066000A89B05C06F3F19F00196A11DB11D7FBF6A
:10067000BA2FA92F982F8827860F911DA11DB11D74
:1006800062E0880F991FAA1FBB1F6A95D1F7BC01B2
:100690002DC0FFB7F89480911A0190911B01A09191
:1006A0001C01B0911D01E6B5A89B05C0EF3F19F0F4
:1006B0000196A11DB11DFFBFBA2FA92F982F882722
:1006C0008E0F911DA11DB11DE2E0880F991FAA1F79
:1006D000BB1FEA95D1F7861B970B885E9340C8F243
:1006E000215030404040504068517C4F2115310529
:1006F0004105510571F60895789484B5826084BDF2
:1007000084B5816084BD85B5826085BD85B5816015
:1007100085BDEEE6F0E0808181608083E1E8F0E075
:100720001082808182608083808181608083E0E8A4
:10073000F0E0808181608083E1EBF0E08081846083
:100740008083E0EBF0E0808181608083EAE7F0E085
:1007500080818460808380818260808380818160E9
:1007600080838081806880831092C1000895CF9338
:10077000DF93482F50E0CA0186569F4FFC01349109
:100780004A575F4FFA018491882369F190E0880FFE
:10079000991FFC01E859FF4FA591B491FC01EE5857
:1007A000FF4FC591D491662351F42FB7F8948C91E3
:1007B000932F909589238C93888189230BC0623075
:1007C00061F42FB7F8948C91932F909589238C9393
:1007D0008881832B88832FBF06C09FB7F8948C91A4
:1007E000832B8C939FBFDF91CF910895482F50E0CA
:1007F000CA0182559F4FFC012491CA0186569F4F22
:10080000FC0194914A575F4FFA013491332309F464
:1008100040C0222351F1233071F0243028F42130DC
:10082000A1F0223011F514C02630B1F02730C1F00C
:100830002430D9F404C0809180008F7703C0809168
:1008400080008F7D8093800010C084B58F7702C0B8
:1008500084B58F7D84BD09C08091B0008F7703C0BF
:100860008091B0008F7D8093B000E32FF0E0EE0F19
:10087000FF1FEE58FF4FA591B4912FB7F894662350
:1008800021F48C919095892302C08C91892B8C93B3
:100890002FBF0895CF93DF930E947C030E948C00AA
:1008A000C0E0D0E00E94CA002097E1F30E9400005F
:1008B000F9CF5058BB27AA270ED0A8C099D030F046
:1008C0009ED020F031F49F3F11F41EF48EC00EF440
:1008D000E095E7FB84C0E92FAAD080F3BA1762073E
:1008E00073078407950718F071F49EF5C2C00EF4E3
:1008F000E0950B2EBA2FA02D0B01B90190010C0130
:10090000CA01A0011124FF27591B99F0593F50F447
:10091000503E68F11A16F040A22F232F342F44279F
:10092000585FF3CF469537952795A795F040539597
:10093000C9F77EF41F16BA0B620B730B840BBAF067
:100940009150A1F0FF0FBB1F661F771F881FC2F7D2
:100950000EC0BA0F621F731F841F48F487957795E6
:100960006795B795F7959E3F08F0B3CF9395880F9D
:1009700008F09927EE0F97958795089504D068940D
:10098000B11178C008955BD088F09F5790F0B92FCF
:100990009927B751A0F0D1F0660F771F881F991FD4
:1009A0001AF0BA95C9F712C0B13081F062D0B1E047
:1009B00008955FC0672F782F8827B85F39F0B93F57
:1009C000CCF3869577956795B395D9F73EF49095D6
:1009D0008095709561957F4F8F4F9F4F089597F940
:1009E0009F6780E870E060E008959FEF80EC0895D5
:1009F00000240A94161617061806090608950024FE
:100A00000A9412161306140605060895092E039477
:100A1000000C11F4882352F0BB0F40F4BF2B11F4EB
:100A200060FF04C06F5F7F4F8F4F9F4F089557FD4A
:100A30009058440F551F59F05F3F71F04795880F4C
:100A400097FB991F61F09F3F79F0879508951216E3
:100A500013061406551FF2CF4695F1DF08C016168F
:100A600017061806991FF1CF869571056105089440
:100A70000895E894BB2766277727CB0197F9089557
:100A800097FB092E07260AD077FD04D00CD006D09C
:100A900000201AF4709561957F4F0895F6F79095B0
:100AA00081959F4F0895AA1BBB1B51E107C0AA1F48
:100AB000BB1FA617B70710F0A61BB70B881F991FFF
:100AC0005A95A9F780959095BC01CD010895EE0F38
:0E0AD000FF1F0590F491E02D0994F894FFCFDC
:00000001FF
