:100000000C9454010C947C010C947C010C947C01A4
:100010000C947C010C947C010C947C010C947C016C
:100020000C947C010C947C010C94F3100C947A11C8
:100030000C947C010C947C010C947C010C947C014C
:100040000C947C010C947C010C947C010C947C013C
:100050000C947C010C947C010C947C010C94A208FF
:100060000C947C010C942C0C000000002400270050
:100070002A002D00300000000000250028002B0081
:100080002E003100000000002300260029002C0073
:100090002F00040404040403040502020202040302
:1000A0000202020206060606060604040202020412
:1000B0000408020110408040102040804080080267
:1000C00004018040201002011080102040400000F8
:1000D000000200080E0000030401000B00000000F5
:1000E00000000000000000000000000007060504FA
:1000F0000100080A0B0C0D09080B000202020100A6
:10010000090400000102020000052400100105247A
:1001100001010104240206052406000107058103EC
:1001200010004009040100020A0000000705020255
:100130004000000705830240000004030904220375
:10014000410072006400750069006E006F002000BD
:100150004C0065006F006E006100720064006F006B
:100160001803410072006400750069006E006F00A2
:1001700020004C004C00430012010002000000402F
:100180004123368000010102000112010002020039
:1001900000404123368000010102000100C180813E
:1001A000C105010902A1010901A100850105091983
:1001B000012903150025019503750181029501753B
:1001C00005810305010930093109381581257F753D
:1001D0000895038106C0C005010906A10185020535
:1001E0000719E029E7150025017501950881029599
:1001F0000175088103950675081500256505071921
:100200000029658100C00904020001030000000903
:10021000210101000122650007058403400001005F
:10022000000000000000002A2B2800000000000051
:100230000000000000000000000000000000002C92
:100240009EB4A0A1A2A434A6A7A5AE362D37382708
:100250001E1F20212223242526B333B62EB7B89F94
:100260008485868788898A8B8C8D8E8F90919293D6
:100270009495969798999A9B9C9D2F3130A3AD3574
:100280000405060708090A0B0C0D0E0F10111213B6
:100290001415161718191A1B1C1DAFB1B0B50000A4
:1002A000600BAB0D2F10701311241FBECFEFD4E0E5
:1002B000DEBFCDBF11E0A0E0B1E0ECE0FDE202C0A6
:1002C00005900D92A43DB107D9F714E0A4EDB1E07B
:1002D00001C01D92A032B107E1F712E0C8EAD2E0F6
:1002E00004C02297FE010E944916C03AD107C9F7FF
:1002F0000E94010E0C9484160C940000A0E0B0E063
:10030000E4E8F1E00C945516EC01A880B980CA80AD
:10031000DB80A114B104C104D10441F484E2A82E0D
:1003200089EDB82E8BE5C82E87E0D82EC601B50121
:100330002DE133EF41E050E00E94181627EA31E446
:1003400040E050E00E94C4157B018C01C601B5015C
:100350002DE133EF41E050E00E941816CA01B901C7
:100360002CEE34EF4FEF5FEF0E94C4156E0D7F1D32
:10037000801F911F97FF04C06150704080409048DB
:10038000688379838A839B839B01AC015F77B90182
:10039000CA01CDB7DEB7EAE00C9471160E947E0167
:1003A000089584E691E00E947E01089560936401BF
:1003B000709365018093660190936701089520E032
:1003C000FC01808D918D8095909586239723892BB4
:1003D00009F021E0822F0895CF92DF92FF920F93D0
:1003E0001F93CF93DF93EC011D8AFF24C62EDD24DB
:1003F000C7FCD09401E010E055C0960102C03595CD
:1004000027958A95E2F7C901EE8DFF8D9D8D80FFBE
:100410000AC02081A80102C0440F551F9A95E2F737
:10042000242B20830BC02081A80102C0440F551F3C
:100430009A95E2F7CA01809582238083EB8DFC8D2B
:100440002081C8010A8C02C0880F991F0A94E2F724
:1004500080958223808384E090E00E945109ECA182
:10046000FDA1808190E00BA002C0959587950A942C
:10047000E2F780FF08C0C8010D8802C0880F991FED
:100480000A94E2F7F82AEB8DFC8D2081C8010A8CD2
:1004900002C0880F991F0A94E2F7282B20838D89C8
:1004A0008F5F8D8B8D89883008F4A7CFEE8DFF8DFF
:1004B000208181E090E00D8C02C0880F991F0A9482
:1004C000E2F7282B208383E090E00E9451098F2DD2
:1004D000DF91CF911F910F91FF90DF90CF90089502
:1004E000CF92DF92EF92FF920F931F93CF93DF9300
:1004F0008C016B01DC019196ED91FC91929720812A
:1005000081E090E090960C9002C0880F991F0A94A9
:10051000E2F7809582238083C0E0D0E0E42EFF24C0
:1005200008C0F601EC0FFD1FC80160810E94EC01BC
:100530002196CE15DF05ACF3D8019196ED91FC9193
:100540009297208181E090E090960C90909702C065
:10055000880F991F0A94E2F7282B20839A966C91B2
:1005600070E080E090E00E94F808DF91CF911F9149
:100570000F91FF90EF90DF90CF900895CF93DF938E
:10058000EC0168E671E045E00E947002CE016DE684
:1005900071E049E00E9470028CA5882331F0CE0101
:1005A00066E771E045E00E9470028DA5882331F076
:1005B000CE016BE771E049E00E947002CE0164E871
:1005C00071E049E00E947002DF91CF9108956F922F
:1005D0007F928F929F92AF92BF92CF92DF92EF92D3
:1005E000FF920F931F93DF93CF93CDB7DEB765973D
:1005F0000FB6F894DEBF0FBECDBF4C01662E742E31
:100600000E94EA08D40196962D913D914D915C91FE
:100610009997621B730B840B950B0E940E155B015F
:100620006C0120E030E84BEB54E40E94C015181632
:100630001CF4C4010E94BE02F40162A570E0882788
:1006400077FD8095982F0E9410157B018C01C601C3
:10065000B501A80197010E94DE14882354F4C80153
:10066000B701A60195010E9479140E94E2140E942C
:10067000F808D40158968D919C91599757969C9360
:100680008E935697772029F100D000D0672D70E027
:1006900080E090E02FEF30E040E050E0EDB7FEB7B3
:1006A000218332834383548320E030E040E050E0F4
:1006B000FFEFEF2EF12C012D112DE0E4AE2EB12C29
:1006C000C12CD12C0E94C312762E0F900F900F9048
:1006D0000F90D4015E96ED91FC915F97408181E08F
:1006E00090E09C015D960C905D9702C0220F331F35
:1006F0000A94E2F7422B40835B96ED91FC915C9764
:1007000040819C015A960C905A9702C0220F331FC9
:100710000A94E2F7422B40839196ED91FC919297D7
:10072000208190960C9002C0880F991F0A94E2F7DE
:1007300080958223808383E090E00E945109DE014E
:10074000119689E0FD0111928A95E9F781E089838C
:1007500082E48A836C827D829E01265F3F4F8CE01B
:10076000F90111928A95E9F700E010E07D01F701A7
:10077000E00FF11FC40160810E94EC01F401E00F61
:10078000F11F80830F5F1F4F0930110581F7D401DE
:1007900011968C918937C9F49AE0E92EF12CEC0E70
:1007A000FD1E840186E1C82ED12CCC0EDD1EC401B5
:1007B000F70161917F010E94EC01D80119968C9399
:1007C0000F5F1F4FEC14FD0491F7D4019196ED914A
:1007D000FC919297208181E090E090960C90909708
:1007E00002C0880F991F0A94E2F7282B20831396E2
:1007F0008D919C91149759969C938E9358970E9433
:10080000EA08F40166A377A380A791A765960FB6BF
:10081000F894DEBF0FBECDBFCF91DF911F910F9136
:10082000FF90EF90DF90CF90BF90AF909F908F9010
:100830007F906F90089560E040E00E94E702089585
:10084000FF920F931F93CF93DF93EC01F42E122F9F
:10085000462F50E0FA01E055FF4FE49120E030E0F0
:10086000F0E0CF01022E02C0959587950A94E2F739
:1008700080FF02C0822F06C02F5F3F4F2830310516
:1008800081F780E08A8F4E565F4FFA018491E82FFE
:10089000F0E0EE0FFF1FEA58FF4F859194919C8F77
:1008A0008B8F4F2D50E0FA01E055FF4FE49120E08F
:1008B00030E0F0E0CF01022E02C0959587950A94B2
:1008C000E2F780FF02C0822F06C02F5F3F4F283023
:1008D000310581F780E08D8F4E565F4FFA0184918C
:1008E000E82FF0E0EE0FFF1FEA58FF4F859194913B
:1008F0009F8F8E8F412F50E0FA01E055FF4FE4911A
:1009000020E030E0F0E0CF01022E02C095958795FF
:100910000A94E2F780FF02C0822F06C02F5F3F4F8C
:100920002830310581F780E088A34E565F4FFA01E9
:100930008491E82FF0E0EE0FFF1FEA58FF4F8591FA
:1009400094919AA389A3402F50E0FA01E055FF4FFC
:10095000E49120E030E0F0E0CF01022E02C0959556
:1009600087950A94E2F780FF02C0822F06C02F5FAE
:100970003F4F2830310581F780E08BA34E565F4F03
:10098000FA018491E82FF0E0EE0FFF1FEC57FF4FC4
:10099000859194919DA38CA3862F61E00E94560AB5
:1009A000812F61E00E94560A8F2D61E00E94560A55
:1009B000802F60E00E94560A802F61E00E94E30AC7
:1009C000EE8DFF8D408121E030E0C9010D8C02C029
:1009D000880F991F0A94E2F7482B4083EB8DFC8D1A
:1009E00080810A8C02C0220F331F0A94E2F7822B07
:1009F0008083CE010E941B04CE010E941B048981CA
:100A0000813431F0833721F0893711F081E02AC039
:100A100081E08AA700E010E0CE0168E671E045E0E1
:100A20000E947002CE016DE671E049E00E94700202
:100A3000CE0164E871E049E00E947002CE010E949C
:100A40001B048981833769F00A30110511F482E0B3
:100A500009C08AA58F5F8AA70F5F1F4F0B30110552
:100A6000D9F680E0DF91CF911F910F91FF9008950B
:100A70001F93182F80918D01612F0E94E30A8091AE
:100A80008E01612F0E94E30A80918F01612F0E94E5
:100A9000E30A80919001612F0E94E30A1F9108955B
:100AA0006F927F928F929F92AF92BF92CF92DF927E
:100AB000EF92FF920F931F93CF93DF93E82F3B01A9
:100AC0009A01CA0162E070E00E94E3154B01AA247A
:100AD00097FCA094BA2C00E010E0CE2FD0E0C357D2
:100AE000DE4F6901EE24D7FCE094FE2C12C0888111
:100AF00061E00E94E30AC701B6010E94F8088881FC
:100B000060E00E94E30AC501B4010E94F8080F5F8B
:100B10001F4F061517055CF3DF91CF911F910F91C1
:100B2000FF90EF90DF90CF90BF90AF909F908F900D
:100B30007F906F9008951F93CF93DF9380E090E0B4
:100B40000E94380564E670E080E090E00E94F808BA
:100B5000C0E0D0E00EC0812F61E070E042E350E0E1
:100B60000E9450051F5F1430B1F72196C330D105A4
:100B700011F010E0F0CF80E090E00E94380564EFC3
:100B800071E080E090E00E94F808DF91CF911F9122
:100B900008958F929F92AF92BF92CF92DF92EF9281
:100BA000FF920F931F93CF93DF934C019B01CB01D7
:100BB00062E070E00E94E3155B01CC24B7FCC094B6
:100BC000DC2CC0E0D0E079010027F7FC0095102F65
:100BD000C815D90594F580918D0161E00E94E30A62
:100BE00080918E0161E00E94E30A80918F0161E0B3
:100BF0000E94E30A8091900161E00E94E30AC8012B
:100C0000B7010E94F80880918D0160E00E94E30A1C
:100C100080918E0160E00E94E30A80918F0160E084
:100C20000E94E30A8091900160E00E94E30AC601FD
:100C3000B5010E94F8082196CBCFDF91CF911F918B
:100C40000F91FF90EF90DF90CF90BF90AF909F906B
:100C50008F90089581E08093020388EE93E0909353
:100C60000403809303030E94EA08DC01CB010E9485
:100C70002E1382E593E060E071E00E94690F81E04D
:100C800090E068EE73E00E94C90508950F9382E535
:100C900093E040E855E260E070E00E947A0C8091B9
:100CA0008D0161E00E94560A80918E0161E00E94F0
:100CB000560A80918F0161E00E94560A809190014E
:100CC00061E00E94560A83E061E00E94560A0E9499
:100CD0002A061092020384ED91E067E046E025E0E9
:100CE00004E00E9420040F91089584ED91E060E0FB
:100CF00040E00E94E70284ED91E068E070E00E942D
:100D0000DF01882319F02FEF30E02EC084ED91E051
:100D100060E170E00E94DF01882319F020E030E0FC
:100D200023C084ED91E060E270E00E94DF0188233F
:100D300019F021E030E018C084ED91E060E870E047
:100D40000E94DF01882319F022E030E00DC084ED1D
:100D500091E060E470E00E94DF01882319F42FEF36
:100D60003FEF02C023E030E0C90108951F93CF9305
:100D7000DF9311E0C0E0D0E0112399F080918D0164
:100D800060E00E94E30A80918E0161E00E94E30A24
:100D900080918F0161E00E94E30A8091900160E000
:100DA00012C080918D0161E00E94E30A80918E0162
:100DB00060E00E94E30A80918F0160E00E94E30AF4
:100DC0008091900161E00E94E30A64E170E080E0BC
:100DD00090E00E94F8082196C233D10539F480E0F2
:100DE000112309F481E0182FC0E0D0E00E947506BD
:100DF0008F3F910509F680E090E00E94380564EF8E
:100E000071E080E090E00E94F808DF91CF911F919F
:100E10000895BC0183E00E94B10908951F93182F23
:100E20008FEF90E00E940907812F64E170E042E3B8
:100E300050E00E94500580E090E00E9409071F9159
:100E400008959F92AF92BF92CF92DF92EF92FF925E
:100E50000F931F93CF93DF93CC24DD24F601EE5F35
:100E6000FD4F9080A92CBB240E94EA087B018C01D5
:100E70008091030390910403880F991FAA2797FD7F
:100E8000A095BA2FE80EF91E0A1F1B1F82E593E0FA
:100E900061E171E00E94660F82E593E0B5014AE0EE
:100EA00050E00E94530F82E593E00E943E0ECFEF88
:100EB000DFEF8FEFCF3FD80709F043C00E947506E0
:100EC000EC018FEFCF3FD80709F441C0CF3FD105E8
:100ED00039F482E593E061E271E00E94690F2FC06E
:100EE000CA15DB0519F5FE01EE0FFF1FEF56FE4F89
:100EF000808191810E940907FE01E357FE4F8081A6
:100F000061E00E94E30A82E593E069E271E00E94F9
:100F1000690F8091030390910403AA2797FDA09580
:100F2000BA2FE81AF90A0A0B1B0B11C082E593E0ED
:100F300068E371E00E94690F8C2F0E940E0780E029
:100F40004AC062E370E080E090E00E94F80882E529
:100F500093E065E471E00E94660F82E593E0B801DA
:100F6000A7012AE030E00E94DE0E82E593E06BE408
:100F700071E00E94660F0E94EA08AB01BC0182E5A5
:100F800093E02AE030E00E94ED0E0E94EA086E1520
:100F90007F058007910708F48CCFCF5FDF4F41F4C6
:100FA00082E593E06FE471E00E94690F892DC5CF5F
:100FB0000894C11CD11C80E090E00E94090780E0E9
:100FC00090E00E9438058091020390E0C816D9068F
:100FD0000CF444CF81E0DF91CF911F910F91FF90EE
:100FE000EF90DF90CF90BF90AF909F9008950F93B8
:100FF0001F93CF93DF93C2E0D2E000E010E041C046
:1010000082E593E06EE571E00E94660F82E593E071
:1010100068814AE050E00E94010F82E593E00E945F
:101020003E0EE881F0E0E357FE4F808161E00E94D0
:10103000E30AE881F0E0EE0FFF1FEF56FE4F8081DC
:1010400091810E940907609103037091040388272E
:1010500077FD8095982F0E94F80880E090E00E942C
:101060000907E991F0E0E357FE4F808160E00E94BC
:10107000E30A64E670E080E090E00E94F8080F5F09
:101080001F4F8091020390E0081719070CF4B8CFA6
:1010900068EC70E080E090E00E94F80885E090E065
:1010A00062E370E00E94C905DF91CF911F910F911B
:1010B0000895CF93DF93C0E0D0E00BC064E070E010
:1010C00080E090E00E940C13FE01EE5FFD4F608314
:1010D00021968091020390E0C817D9077CF3DF9135
:1010E000CF910895809102038F5F809302038F3F19
:1010F00011F40E942A0680E090E00E9438050E94C8
:1011000059080E94F7070E9421078823A9F00E942E
:101110009B058091030390910403C297909304036D
:10112000809303038436910564F484E690E0909301
:1011300004038093030308950E94B6068EEF809304
:10114000020308951F920F920FB60F9211242F934E
:101150003F938F939F93AF93BF9380910903909197
:101160000A03A0910B03B0910C0330910D0301967B
:10117000A11DB11D232F2D5F2D3720F02D57019676
:10118000A11DB11D20930D038093090390930A03C1
:10119000A0930B03B0930C03809105039091060379
:1011A000A0910703B09108030196A11DB11D809382
:1011B000050390930603A0930703B0930803BF9120
:1011C000AF919F918F913F912F910F900FBE0F90F4
:1011D0001F9018958FB7F8942091090330910A0356
:1011E00040910B0350910C038FBFB901CA010895C0
:1011F0009B01AC017FB7F8948091050390910603A1
:10120000A0910703B091080366B5A89B05C06F3F86
:1012100019F00196A11DB11D7FBFBA2FA92F982FDC
:101220008827860F911DA11DB11D62E0880F991FAF
:10123000AA1FBB1F6A95D1F7BC012DC0FFB7F89458
:101240008091050390910603A0910703B0910803D4
:10125000E6B5A89B05C0EF3F19F00196A11DB11D91
:10126000FFBFBA2FA92F982F88278E0F911DA11D80
:10127000B11DE2E0880F991FAA1FBB1FEA95D1F7A5
:10128000861B970B885E9340C8F221503040404047
:10129000504068517C4F211531054105510571F6CB
:1012A0000895019739F0880F991F880F991F0297A9
:1012B0000197F1F70895789484B5826084BD84B570
:1012C000816084BD85B5826085BD85B5816085BD41
:1012D000EEE6F0E0808181608083E1E8F0E010825A
:1012E000808182608083808181608083E0E8F0E09B
:1012F000808181608083E1E9F0E080818260808389
:10130000808181608083E0E9F0E08081816080837A
:10131000E1ECF0E080818460808380818260808362
:10132000808181608083E3ECF0E080818160808354
:10133000E0ECF0E0808182608083E2ECF0E080818C
:1013400081608083EAE7F0E080818460808380812F
:1013500082608083808181608083808180688083D7
:1013600008951F93CF93DF93182FEB0161E00E9444
:10137000560A209709F48FC0CF3FD10509F48EC0DB
:10138000E12FF0E0E253FF4F8491883009F440C030
:10139000893070F4823019F1833020F4813009F003
:1013A00077C018C0833001F1843009F071C026C0C5
:1013B0008B3009F44BC08C3030F4893099F18A308D
:1013C00009F066C039C08C3009F44DC08E3009F088
:1013D0005FC051C084B5806884BDC7BD63C084B59B
:1013E000806284BDC8BD5EC08091800080688093AB
:1013F0008000D0938900C093880054C08091800001
:10140000806280938000D0938B00C0938A004AC092
:1014100080919000806880939000D0939900C09351
:10142000980040C080919000806280939000D0939B
:101430009B00C0939A0036C0809190008860809392
:101440009000D0939D00C0939C002CC08091C00060
:1014500080688093C0008091C0008F7B8093C00023
:10146000C093CF001FC08091C00080628093C000F5
:10147000C093D00017C08091C20088608093C200E2
:101480008091C2008B7F8093C200C093D2000AC0BB
:10149000C038D1051CF4812F60E002C0812F61E0CB
:1014A0000E94E30ADF91CF911F910895CF93DF93BC
:1014B000482F50E0CA0180559F4FFC0134914E5691
:1014C0005F4FFA018491882369F190E0880F991F9A
:1014D000FC01E859FF4FA591B491FC01EA58FF4F78
:1014E000C591D491662351F42FB7F8948C91932F22
:1014F000909589238C93888189230BC0623061F495
:101500002FB7F8948C91932F909589238C93888191
:10151000832B88832FBF06C09FB7F8948C91832BB1
:101520008C939FBFDF91CF910895883071F18930FE
:1015300068F4823031F1833020F4813009F042C008
:101540001DC0833089F08430E9F512C08B3059F129
:101550008C3028F48930E9F08A30A1F51EC08C3037
:1015600031F18E3079F529C0809180008F7703C0EA
:10157000809180008F7D80938000089584B58F775F
:1015800002C084B58F7D84BD0895809190008F77CF
:1015900007C0809190008F7D03C080919000877F6D
:1015A0008093900008958091C0008F7703C0809150
:1015B000C0008F7D8093C00008958091C200877F16
:1015C0008093C2000895FF920F931F93F62E482F29
:1015D00050E0CA0182539F4FFC012491CA018055FB
:1015E0009F4FFC0114914E565F4FFA010491002366
:1015F000C9F0222319F0822F0E94950AE02FF0E013
:10160000EE0FFF1FEA58FF4FA591B4919FB7F894D2
:10161000FF2021F48C911095812302C08C91812BA5
:101620008C939FBF1F910F91FF90089520914E03BF
:1016300030914F038091500390915103281B390B37
:101640002F733070C901089520914E0330914F03DC
:1016500080915003909151032817390719F42FEF07
:101660003FEF09C0E0915003F0915103E25FFC4F5E
:101670008081282F30E0C901089520914E033091D8
:101680004F0380915003909151032817390719F4A3
:101690002FEF3FEF13C0E0915003F0915103E25F51
:1016A000FC4F2081809150039091510301968F73DC
:1016B0009070909351038093500330E0C9010895D6
:1016C000109255031092540388EE93E0A0E0B0E02E
:1016D0008093560390935703A0935803B0935903F4
:1016E00087EA91E0909353038093520308950F93F8
:1016F0001F93DF93CF930F92CDB7DEB78C01698331
:101700008091A001882369F083E0BE016F5F7F4F65
:1017100041E050E00E944E101816190614F49C0186
:1017200007C081E090E0F8019383828320E030E0FD
:10173000C9010F90CF91DF911F910F91089583E020
:101740000E9425100895CF93DF9312C082E00E947B
:10175000B00F2FEF8F3F9207C9F0E0914E03F09149
:101760004F03E25FFC4F8083D0934F03C0934E033F
:10177000C0914E03D0914F032196CF73D0708091CA
:10178000500390915103C817D90701F7DF91CF910A
:101790000895FC0180818E5F808380E868EF70E0AF
:1017A00042E450E00E94C90F0895FC0181819081BC
:1017B000913A59F4813209F04CC080E069E971E056
:1017C00047E050E00E94C90F42C0913209F041C089
:1017D000803239F489E991E067E070E00E940D10F1
:1017E00036C0823209F035C082818093A001809199
:1017F000990190919A01A0919B01B0919C01805B0D
:101800009440A040B04019F58091A00180FD12C025
:1018100087E797E790930108809300082BE088E121
:1018200090E00FB6F894A895809360000FBE2093C7
:1018300060000DC088E10FB6F894809360001092AC
:1018400060000FBEA895109201081092000881E078
:10185000089580E0089508951F920F920FB60F9299
:1018600011242F933F934F938F939F93EF93FF9365
:101870008091C80082FD1DC04091CE002091A00340
:101880003091A1032F5F3F4F2F7330708091A203DF
:101890009091A3032817390771F0E091A003F0910C
:1018A000A103E05AFC4F40833093A1032093A0038F
:1018B00002C08091CE00FF91EF919F918F914F9147
:1018C0003F912F910F900FBE0F901F901895E091B0
:1018D000F403F091F503E05CFF4F81919191208139
:1018E0003181821B930B8F739070892B11F00E94B2
:1018F0002B0C0895AF92BF92DF92EF92FF920F935D
:101900001F93CF93DF93EC017A018B01DD244030EC
:1019100081EE580780E0680780E0780711F0DD2449
:10192000D39491E0A92EB12CEC89FD89DD2069F0DA
:10193000C50108A002C0880F991F0A94E2F78083AE
:1019400060E079E08DE390E005C0108260E874E823
:101950008EE190E0A80197010E94F61521503040D9
:1019600040405040569547953795279580E1203067
:10197000380720F0DD2011F0DD24D6CFE889F98981
:101980003083EA89FB89208319A2EE89FF8940818F
:1019900021E030E0C9010C8C02C0880F991F0A9425
:1019A000E2F7482B4083EE89FF894081C9010D8C05
:1019B00002C0880F991F0A94E2F7482B4083EE89F2
:1019C000FF894081C9010E8C02C0880F991F0A94BB
:1019D000E2F7482B4083EE89FF8980810F8C02C09B
:1019E000220F331F0A94E2F7209528232083DF91EA
:1019F000CF911F910F91FF90EF90DF90BF90AF902C
:101A00000895DC011C96ED91FC911D97E05CFF4F61
:101A10002191319180819181281B390B2F73307076
:101A2000C9010895DC011C96ED91FC911D97E05CC5
:101A3000FF4F20813181E054F040DF01AE5BBF4FAA
:101A40008D919C9111972817390719F42FEF3FEFCB
:101A500007C08D919C91E80FF91F8081282F30E0FD
:101A6000C9010895DC011C96ED91FC911D97E05C85
:101A7000FF4F20813181E054F040DF01AE5BBF4F6A
:101A80008D919C9111972817390719F42FEF3FEF8B
:101A900010C08D919C911197E80FF91F20818D91B5
:101AA0009C91119701968F73907011969C938E93D1
:101AB00030E0C9010895DC0191968C9191978823BB
:101AC00039F05496ED91FC915597808186FFF9CFBE
:101AD00091961C920895CF93DF93EC01EE85FF85DC
:101AE000E05CFF4F20813181E054F0402F5F3F4F99
:101AF0002F733070DF01AE5BBF4F8D919C911197BA
:101B000028173907D1F3E05CFF4F80819181E054C1
:101B1000F040E80FF91F6083EE85FF85E05CFF4F22
:101B200031832083EE89FF89208181E090E00F8C52
:101B300002C0880F991F0A94E2F7282B208381E0C6
:101B400089A3EC89FD8980818064808381E090E0B5
:101B5000DF91CF9108951092EB031092EA0388EE83
:101B600093E0A0E0B0E08093EC039093ED03A093AA
:101B7000EE03B093EF0389EB91E09093E903809338
:101B8000E80380E693E09093F5038093F40384EAFE
:101B900093E09093F7038093F6038DEC90E090939D
:101BA000F9038093F8038CEC90E09093FB0380930F
:101BB000FA0388EC90E09093FD038093FC0389EC9A
:101BC00090E09093FF038093FE038AEC90E0909363
:101BD0000104809300048EEC90E0909303048093C2
:101BE000020484E08093040483E08093050487E08A
:101BF0008093060485E08093070481E080930804C5
:101C00000895CF93DF930E945B0982E194E00E94E4
:101C100030100E944606C7E6DCE00E94720820975A
:101C2000E1F30E94670CF9CFCF92DF92EF92FF921F
:101C30000F931F93CF93DF937C016B018A01C0E068
:101C4000D0E00FC0D6016D916D01D701ED91FC91EF
:101C50000190F081E02DC7010995C80FD91F0150EF
:101C600010400115110571F7CE01DF91CF911F9141
:101C70000F91FF90EF90DF90CF900895EF92FF9239
:101C80000F931F938C01DC01ED91FC910190F08189
:101C9000E02D6DE009957C01D801ED91FC9101905A
:101CA000F081E02DC8016AE009959C012E0D3F1DD1
:101CB000C9011F910F91FF90EF900895CF93DF938B
:101CC000EC016115710519F420E030E00FC0DB0173
:101CD0000D900020E9F71197A61BB70BE881F98159
:101CE0000280F381E02DAD0109959C01C901DF91CE
:101CF000CF9108954F925F927F928F929F92AF9271
:101D0000BF92CF92DF92EF92FF920F931F93DF93D8
:101D1000CF93CDB7DEB7A1970FB6F894DEBF0FBE55
:101D2000CDBF2C01742ECB01223008F42AE019A279
:101D300031E2C32ED12CCC0EDD1E822E9924AA2492
:101D4000BB24672D752FA50194010E94F61579011A
:101D50008A01C801B701A50194010E94C415472D4D
:101D6000461B0894C108D1084A3014F4405D01C0F4
:101D7000495CF6014083E114F1040105110521F0ED
:101D80007E2C5F2DC801DDCFC201B6010E945E0E20
:101D9000A1960FB6F894DEBF0FBECDBFCF91DF91F5
:101DA0001F910F91FF90EF90DF90CF90BF90AF9079
:101DB0009F908F907F905F904F900895DC01211548
:101DC000310541F4ED91FC910190F081E02D642FFB
:101DD000099508950E947A0E0895EF92FF920F934D
:101DE0001F937C010E94DE0E8C01C7010E943E0EF3
:101DF0009C01200F311FC9011F910F91FF90EF909F
:101E00000895EF92FF920F931F939A01E62EFF24FD
:101E100000E010E0B801A7010E94DE0E1F910F91B3
:101E2000FF90EF900895CF92DF92EF92FF920F9381
:101E30001F93CF93DF93EC016A017B0121153105DC
:101E400041F4E881F9810190F081E02D642F09953A
:101E50001FC02A303105D1F477FF17C0E881F9811E
:101E60000190F081E02D6DE209958C014427552702
:101E7000BA014C195D096E097F09CE012AE00E9462
:101E80007A0E9801280F391F04C02AE00E947A0EAA
:101E90009C01C901DF91CF911F910F91FF90EF90AD
:101EA000DF90CF900895EF92FF920F931F937B01E5
:101EB0009A010027F7FC0095102FB801A7010E9496
:101EC000130F1F910F91FF90EF9008950E945E0EE7
:101ED0000895EF92FF920F931F937C010E945E0E74
:101EE0008C01C7010E943E0E080F191FC8011F91E7
:101EF0000F91FF90EF900895282F80910C04882374
:101F0000C1F057FF1AC015C0289890930B04809118
:101F1000F1008193E217F307B9F74115510539F044
:101F20008091F200882319F48BE68093E800AFBF1C
:101F300002C04FEF5FEFCA010895AFB7F894277062
:101F40002093E9008091F200282F30E02417350714
:101F50000CF4A901FB019B01240F311D94E6DACF9B
:101F6000DF93CF930F92CDB7DEB7BE016F5F7F4F88
:101F700041E050E00E947C0F019719F02FEF3FEFF6
:101F800003C08981282F30E0C9010F90CF91DF91E4
:101F90000895FF920F931F93F82E142F052F409151
:101FA0000F0450911004212F302FC901DC01FB01D7
:101FB0006EEF29C0F7FE02C0949101C0908120917C
:101FC0000D0430910E0424173507ACF48091E8001D
:101FD0008570E1F38091E80082FF03C02FEF3FEFAF
:101FE00017C09093F100C90101968F739070892BEF
:101FF00011F46093E8002F5F3F4F30930E0420935D
:102000000D04119731961097A9F6812F902F9C01FE
:10201000C9011F910F91FF9008959C018091E800E4
:1020200082FFFCCFF901260F311D03C08091F10022
:102030008193E217F307D1F7289884E680930B0485
:102040008BEF8093E800CB0108958093E9008091A5
:10205000F200882319F08AE38093E8000895089538
:1020600010920C0481E08093D70080EA8093D8001E
:1020700082E189BD09B400FEFDCF61E070E080E03F
:1020800090E00E94F80880E98093D8008CE080936B
:10209000E2001092E000559A209A08955F926F92A4
:1020A0007F928F929F92AF92BF92CF92DF92EF92E8
:1020B000FF920F931F93CF93DF93E82E842E752EFC
:1020C00080910C04882371F18B01242F352FC901D5
:1020D000EC017AEFF72E67E0962E9E2050E4552E05
:1020E0008E2D90E040E2A42EB12CA822B9223AE332
:1020F000632E20E4C22ED12CC822D92258C09FB70B
:10210000F8949092E9008091E80085FD02C020E0FB
:1021100004C08091F200252D281B9FBF222361F46B
:10212000FA9419F42FEF3FEF4DC061E070E080E0CA
:1021300090E00E94F8083BC0822F90E0C817D907B2
:102140000CF42C2FC21BD1094FB7F8949092E900E0
:10215000A114B10421F406C01092F10021502223F1
:10216000D9F719C0E7FC03C0F801922F10C0C801CD
:10217000322F06C0FC010196E491E093F10031504A
:102180003323C1F706C081918093F10091509923C8
:10219000D1F7020F111D8091E80085FF05C020973F
:1021A00029F4C114D10411F06092E8004FBF2097C8
:1021B00009F0A5CF5D9884E680930A04282D372D79
:1021C000C9019C01C901DF91CF911F910F91FF902F
:1021D000EF90DF90CF90BF90AF909F908F907F90C7
:1021E0006F905F9008951F920F920FB60F92112477
:1021F0002F933F934F935F936F937F938F939F930F
:10220000AF93BF93EF93FF938091E1001092E100B1
:10221000982F83FF0FC01092E90081E08093EB00BC
:102220001092EC0082E38093ED0010920C0488E0A1
:102230008093F00092FF34C083E08093E9008091A6
:10224000F200882319F08AE38093E8008FB7F894AE
:1022500092E09093E9009091F2008FBF992321F0D2
:1022600082E593E00E94A30B80910A04882351F039
:1022700080910A04815080930A0480910A04882383
:1022800009F45D9A80910B04882351F080910B042E
:10229000815080930B0480910B04882309F4289AC1
:1022A000FF91EF91BF91AF919F918F917F916F912E
:1022B0005F914F913F912F910F900FBE0F901F9004
:1022C00018950F931F93DF93CF930F92CDB7DEB77F
:1022D00019828E010F5F1F4FC8010E94C90BC801F0
:1022E0000E946D14898190E00F90CF91DF911F9132
:1022F0000F9108951F920F920FB60F921124EF9233
:10230000FF921F932F933F934F935F936F937F930E
:102310008F939F93AF93BF93EF93FF93DF93CF93ED
:10232000CDB7DEB76197DEBFCDBF1092E9008091D7
:10233000E80083FF0FC1FE0131969E01275F3F4FEA
:1023400003C08091F1008193E217F307D1F7289839
:1023500084E680930B0482EF8093E800998197FFD5
:1023600005C08091E80080FFFCCF03C08EEF809312
:10237000E800292F30E0C90180769070892B09F0A0
:10238000C2C08A81882329F41092F1001092F100D2
:10239000D6C0813009F4D3C0833009F4D0C0853071
:1023A00049F48091E80080FFFCCF8B8180688093A6
:1023B000E300C5C0863009F07CC01C81EF80F88442
:1023C0001230C1F51092E90010920E0410920D0423
:1023D0001092100410920F040E94611199E0FE0106
:1023E0003996DF01292F1D922A95E9F799871A87D7
:1023F00091E09E8790E8988B9AEF998B20910D043D
:1024000030910E04275F3F4F3C872B878D871092BA
:10241000E90010920E0410920D04F0921004E09264
:102420000F0480E0BF0149E050E00E94C90F0E9404
:10243000611185C01092E90010920E0410920D04F3
:10244000F0921004E0920F04123241F482E290E024
:102450000E946514892B09F476C071C0113079F49B
:1024600088E0E816F10419F481E08093110480916A
:102470001104882309F06BC0E8E7F1E013C01330C2
:1024800009F061C08B81882319F4EAE3F1E00AC006
:10249000823019F4EEE3F1E005C0813009F053C059
:1024A000E0E6F1E0449180E8BF0150E00E94C90FEE
:1024B00046C0873009F447C0883021F481E080931A
:1024C000F1003DC08930D9F523703070232BD9F548
:1024D000EDE9F1E091E031E026E39093E9003093FB
:1024E000EB0084918093EC002093ED009F5F319688
:1024F000953099F78EE78093EA001092EA008B817D
:1025000080930C041CC08F8198851092E900109272
:102510000E0410920D049093100480930F048D818B
:10252000882329F4CE0101960E94D50B06C0823083
:1025300051F4CE0101960E943613882321F08EEFCC
:102540008093E80007C081E28093EB0003C0EAE8D3
:10255000F1E0A8CF6196DEBFCDBFCF91DF91FF91B3
:10256000EF91BF91AF919F918F917F916F915F910B
:102570004F913F912F911F91FF90EF900F900FBEC1
:102580000F901F9018952F923F924F925F926F92EB
:102590007F928F929F92AF92BF92CF92DF92EF92F3
:1025A000FF920F931F93DF93CF93CDB7DEB73B011D
:1025B0004C0119012A016D897E898F89988D6A19CC
:1025C0007B098C099D09621A730A840A950AA40181
:1025D00093010E94C415E218F30804091509A80123
:1025E00097010E9418162A0D3B1D4C1D5D1DB90157
:1025F000CA01CF91DF911F910F91FF90EF90DF9073
:10260000CF90BF90AF909F908F907F906F905F9092
:102610004F903F902F900895EF92FF920F931F934A
:102620007B018C01611571058105910529F420E07C
:1026300030E040E050E00BC00E94D101A8019701BA
:102640000E941816AC01CB01DA019C01AD01B90161
:10265000CA011F910F91FF90EF900895009729F004
:10266000BC0180E090E00E94D6010895FC019181B8
:102670008081813A31F4913089F080E0933089F49F
:102680000DC0813269F49B3021F482818093A101D5
:1026900005C09A3029F482818093A20181E00895D7
:1026A00080E00895EF92FF920F931F938C01E62E26
:1026B000DC01ED91FC910480F581E02D0995F82E67
:1026C000D801ED91FC910680F781E02DC8016E2DB7
:1026D00009958F2D90E01F910F91FF90EF90089535
:1026E00010921304109217041092160489EC91E0D2
:1026F00090931504809314040895EF92FF920F9322
:102700001F93DF93CF930F92CDB7DEB789838B01F1
:102710007A0184E0BE016F5F7F4F41E050E00E948C
:102720004E1084E4B801A7010E944E100F90CF9183
:10273000DF911F910F91FF90EF90089582E048E0A4
:1027400050E00E947D130895FC01168217821086C6
:1027500011861286138614823496BF010E949E133E
:102760000895DC01683810F0685829C0E62FF0E0C1
:1027700067FF13C0E058F04081E090E002C0880F8E
:10278000991FEA95E2F7809514962C9114972823C7
:1027900014962C93149760E012C0E15EFD4F649193
:1027A000662319F420E030E01DC067FF08C01496CE
:1027B0008C9114978D7F14968C9314976F77FD01ED
:1027C00090E0662321F08681861709F416829F5FC8
:1027D00031969630B1F7CD011496BD010E949E133B
:1027E00021E030E0C9010895CF93DF93DC01683820
:1027F00010F0685825C0E62FF0E067FF12C0E058DF
:10280000F04081E090E002C0880F991FEA95E2F75E
:1028100014962C911497282B14962C93149760E0FF
:102820000FC0E15EFD4F64916623D9F167FF08C0D8
:1028300014968C911497826014968C9314976F77EA
:1028400016968C9116978617A9F117968C91179763
:10285000861781F118968C911897861759F1199659
:102860008C911997861731F11A968C911A978617C1
:1028700009F11B968C911B978617E1F0ED01E0E0C2
:10288000F0E09E2F8E81882321F4EA0FFB1F6683E0
:1028900006C09F5F31962196E630F10591F796309C
:1028A00049F481E090E013969C938E93129720E078
:1028B00030E007C0CD011496BD010E949E1321E0B7
:1028C00030E0C901DF91CF91089580E861EA71E0BD
:1028D00045E650E00E94C90F0895FC0180818F5F9A
:1028E000808380E866E072E049E150E00E94C90F11
:1028F00008955058BB27AA270ED008C1F9D030F050
:10290000FED020F031F49F3F11F41EF4EEC00EF41F
:10291000E095E7FBE4C0E92F0AD180F3BA1762071C
:1029200073078407950718F071F49EF522C10EF421
:10293000E0950B2EBA2FA02D0B01B90190010C01CF
:10294000CA01A0011124FF27591B99F0593F50F4E7
:10295000503E68F11A16F040A22F232F342F44273F
:10296000585FF3CF469537952795A795F040539537
:10297000C9F77EF41F16BA0B620B730B840BBAF007
:102980009150A1F0FF0FBB1F661F771F881FC2F772
:102990000EC0BA0F621F731F841F48F48795779586
:1029A0006795B795F7959E3F08F0B3CF9395880F3D
:1029B00008F09927EE0F9795879508956CD008F445
:1029C00081E00895BCD088F09F5790F0B92F9927E7
:1029D000B751A0F0D1F0660F771F881F991F1AF02A
:1029E000BA95C9F712C0B13081F0C3D0B1E00895F3
:1029F000C0C0672F782F8827B85F39F0B93FCCF374
:102A0000869577956795B395D9F73EF4909580951F
:102A1000709561957F4F8F4F9F4F0895E89409C03F
:102A200097FB3EF490958095709561957F4F8F4F01
:102A30009F4F9923A9F0F92F96E9BB279395F69517
:102A4000879577956795B795F111F8CFFAF4BB0F95
:102A500011F460FF1BC06F5F7F4F8F4F9F4F16C0F9
:102A6000882311F096E911C0772321F09EE8872F83
:102A7000762F05C0662371F096E8862F70E060E03F
:102A80002AF09A95660F771F881FDAF7880F9695B8
:102A9000879597F90895990F0008550FAA0BE0E85C
:102AA000FEEF16161706E807F907C0F01216130610
:102AB000E407F50798F0621B730B840B950B39F450
:102AC0000A2661F0232B242B252B21F408950A26B6
:102AD00009F4A140A6958FEF811D811D089597F9F6
:102AE0009F6780E870E060E008959FEF80EC0895B4
:102AF00000240A94161617061806090608950024DD
:102B00000A9412161306140605060895092E039456
:102B1000000C11F4882352F0BB0F40F4BF2B11F4CA
:102B200060FF04C06F5F7F4F8F4F9F4F089557FD29
:102B30009058440F551F59F05F3F71F04795880F2B
:102B400097FB991F61F09F3F79F0879508951216C2
:102B500013061406551FF2CF4695F1DF08C016166E
:102B600017061806991FF1CF86957105610508941F
:102B70000895E894BB2766277727CB0197F9089536
:102B80008ADF08F48FEF0895629FD001739FF001F0
:102B9000829FE00DF11D649FE00DF11D929FF00DED
:102BA000839FF00D749FF00D659FF00D9927729F24
:102BB000B00DE11DF91F639FB00DE11DF91FBD01AF
:102BC000CF011124089597FB092E07260AD077FD1F
:102BD00004D049D006D000201AF4709561957F4F3B
:102BE0000895F6F7909581959F4F0895A1E21A2ECA
:102BF000AA1BBB1BFD010DC0AA1FBB1FEE1FFF1FA1
:102C0000A217B307E407F50720F0A21BB30BE40BF0
:102C1000F50B661F771F881F991F1A9469F7609537
:102C20007095809590959B01AC01BD01CF010895F1
:102C300097FB092E05260ED057FD04D0D7DF0AD00A
:102C4000001C38F450954095309521953F4F4F4FDB
:102C50005F4F0895F6F790958095709561957F4F39
:102C60008F4F9F4F0895AA1BBB1B51E107C0AA1F9E
:102C7000BB1FA617B70710F0A61BB70B881F991F1D
:102C80005A95A9F780959095BC01CD010895EE0F56
:102C9000FF1F0590F491E02D09942F923F924F92DF
:102CA0005F926F927F928F929F92AF92BF92CF92DC
:102CB000DF92EF92FF920F931F93CF93DF93CDB7E5
:102CC000DEB7CA1BDB0B0FB6F894DEBF0FBECDBF5D
:102CD00009942A88398848885F846E847D848C842E
:102CE0009B84AA84B984C884DF80EE80FD800C8137
:102CF0001B81AA81B981CE0FD11D0FB6F894DEBF1A
:0C2D00000FBECDBFED010895F894FFCF89
:102D0C005374617274696E672067616D652E2E2E27
:102D1C000057616974696E6720627574746F6E20F8
:102D2C00007265737461727400436F7272656374C0
:102D3C0020627574746F6E0057726F6E67206275C7
:102D4C0074746F6E0074696D653A00202D20004E0E
:102D5C006F626F647920706C617965642E00506CC1
:102D6C0061792000010000000143000100014400D2
:102D7C00010300000000014D000001014F00FFFFA6
:102D8C0003000000014300005A5A5A5A5A0A0B0C0D
:102D9C000D0A001E004B006E0000E1000000000058
:102DAC0000010100000000770B140E160B3D0B24E4
:102DBC000B9F0BA30B000000006B0D140E010D32CA
:102DCC000D120D5B0D000000005213140EF413B124
:042DDC0013A4130029
:00000001FF
